:04000000020029329F
:03000B000200945C
:0100130032BA
:01001B0032B2
:030023000208626E
:0300910002002644
:0300260002009540
:20009400327F19751D01751E01758201C0071207C21209391208181201F9751D00751E000A
:2000B4007582001207FB755302755412755500758201120D53D007C2CC900023E4F0A3F0C9
:2000D400C00712035CAE827D0090000DEEF0EDA3F0AD107E00900001EDF0EEA3F0AD127EC5
:2000F40000900007EDF0EEA3F0AD117E00900003EDF0EEA3F0AD137E00900009EDF0EEA385
:20011400F0AD147E0090000BEDF0EEA3F01204B8AE827D0090000DEEF0EDA3F012050912FB
:200134001064AD82AE8390000FEDF0EEA3F012020EAD82AE83D007900011EDF0EEA3F02062
:2001540093099000137401F0E4A3F02094099000157401F0E4A3F0900021E0FDA3E0FE4DD6
:200174006004D2B48002C2B490001FE0FDA3E0FE4D6004D2B38002C2B3900019E0FDA3E046
:2001940090001BE0FCA3E08C1D90001DE0FCA3E08C1E8D82C0071207FBD007EF60031F8030
:2001B400287F19900023E0FDA3E0FE4D6019D2CC900023E0FDA3E0FE1DBDFF011E9000233A
:2001D400EDF0EEA3F08002C2CC90000175F000C00712094CAD82AE83D007900017EDF0EED0
:0501F400A3F00200D49D
:2001F9001206921206A27582461207187582101207180206B81206A27582471207181207DA
:2002190087AE827F00C007C0061206D8120787AD82D006D0077C00ED4207EC4206C007C029
:20023900061206F81206B8D006D0078F828E83121058AC82AD83AEF0FF749AC0E014C0E019
:20025900C0E0743FC0E08C828D838EF0EF1210D8AC82AD83AEF0FFE58124FCF5818C828D7B
:07027900838EF0EF02106418
:20028000AF82EF600B7E0DEE14FDFE70FA1F80F222AC82AD83AEF0FFEC4D4E4F60257582E1
:2002A000C8C007C006C005C004120280D004D005D006D0071CBCFF091DBDFF051EBEFF01DC
:0402C0001F80D522A4
:0F008200751000751100751200751300751400CC
:2002C400AD82AE83AFF0E4120F047C007A007B0020B5168A008B010ABA00010BC3741098F1
:2002E40074279950EB758203227B007A0030B528758201C007C006C005C004C00212028009
:20030400D002D004D005D006D0078A010A8A03E9249B50D975820422EB24FA50198D828E92
:20032400838FF01211A625E0FB0B8D828E838FF0EB120F0480158D828E838FF01211A62512
:20034400E0FB8D828E838FF0120F040CBC080050030202D075820022C2B590001EE4F5F0FC
:20036400120291D2B575820A1202807E007F0020B5168E048F050EBE00010FC374109C7477
:20038400279D50EB758201227E007F0030B5168E048F050EBE00010FC374109C74279D50DB
:2003A400EB7582022290001275F0401202C4E582FF600674104FF5822290001375F0401282
:2003C40002C4E582FF600674204FF5822290001075F0401202C4E582FF600674304FF582B8
:2003E4002290001175F0401202C4E582FF600674404FF5822290001475F0401202C4E582C9
:0D040400FF600674504FF5822275820022C1
:20041100D295758205120280C295758278120280D29575820F120280A295E433FF75821421
:20043100C007120280D0078F82227F007E08C295758201C007C006120280D295758202125F
:200451000280D006D007EFA29513FF75820BC007C006120280D006D007EE14FDFE70CF8F89
:200471008222AF827E08EF30E01AC295758202C007C006120280D29575820A120280D006B4
:20049100D0078018C29575820AC007C006120280D295758202120280D006D007EFC313FFFE
:2004B100EE14FDFE70C022120411AF827582CCC007120473758244120473120411AE82D086
:2004D10007EEC454F042077582CCC0071204737582BE120473D0077E00EE2421F9C007C06C
:2004F10006C00112043BE582D001D006D007F70EBE090040E48F8222E4F52AF52BF52CF592
:200511002DF52EF52F852EF005F0E5218002C313D5F0FB5401FFE52E24FCF582E52F34FF5B
:20053100F583C00712104B85821585831685F017F518900000E4F5F07440120F1F858230A7
:2005510085833185F032F533D0078F8212119BAA82AD83AEF0FFC030C031C032C0338A8211
:200571008D838EF0EF120E00AC82AD83AEF0FFE58124FCF581C004C005C006C007852A828F
:20059100852B83852CF0E52D120FF285822A85832B85F02CF52DE58124FCF581052EE4B562
:2005B1002E02052FC3E52E9408E52F648094805003020516E4F52EF52F852EF005F0E5220E
:2005D1008002C313D5F0FB5401FD852E82852F83A3A3A3A3C00512104B85821585831685B7
:2005F100F017F518900000E4F5F07440120F1F85823085833185F032F533D0058D82121143
:200611009BAC82AD83AEF0FFC030C031C032C0338C828D838EF0EF120E00AC82AD83AEF0C6
:20063100FFE58124FCF581C004C005C006C007852A82852B83852CF0E52D120FF285822A3D
:2006510085832B85F02CF52DE58124FCF581052EE4B52E02052FC3E52E9403E52F6480946E
:200671008050030205CAE522A2E3E433FF6006E52DB2E7F52D852A82852B83852CF0E52DD9
:010691002246
:20069200D291758201120280D290758201020280C291758201120280C290758201020280CE
:2006B2001206920206A2C290758201120280C291758201120280D290758201120280D291C6
:2006D200758201020280C291758201120280D290758201120280C290758201120280D2917E
:2006F200758201020280D291758201120280D290758201120280C290758201120280D2914E
:20071200758201020280AF827E00EF20E712C291758201C007C006120280D006D0078010EB
:20073200D291758201C007C006120280D006D007D290758201C007C006120280C2907582BA
:2007520001120280D006D007EF2FFF0EBE080040B9D291758201120280D2907582011202FE
:2007720080A291E433FFC290758201C007120280D0078F82227F007E00D290758201C007D1
:20079200C006120280D006D007309103430701BE07005003EF2FFFC290758201C007C00625
:1007B200120280D006D0070EBE080040CC8F8222E3
:2007C200AF8243A22053A2EF75D80075E90075F90075D90275F2008FEA8FFA75DA4275F332
:2007E20000851DEB851DFB75DB4275F400851EEC851EFC75DC42D2DE22AF828FEA8FFA8587
:0C0802001EEB851EFB851DEC851DFC22F5
:20080E00A203B39204E433F58222538EEF743F55A24440F5A2743F55984440F598439810FB
:20082E00438E0175D6FF75D7D0538EF7438E04D2BCC298C299900028E4F0900027F09000BF
:20084E0026F0900025F0D202D203C201C200D2AC438E1022C0E0C082C083C0D075D008C25C
:20086E00AC1098028018900026E0FF04F0EF2429F582E43401F583E599F0D200C203109901
:20088E00028027900027E0FF900025E0FEEFB50E06D202D2018013900027EF04F0EF2429B0
:2008AE00F582E43400F583E0F599D2ACD0D0D083D082D0E032AF82900025E0FE04F0EE2446
:2008CE0029F582E43400F583EFF0C2AC1002028002D299D2AC22AD82AE83AFF08D828E83CD
:2008EE008FF01211A6FC60188C82C007C006C0051208C3D005D006D0070DBD00DF0E80DC5C
:20090E0022900028E0FF04F0EF2429F582E43401F583E0FFC2AC900028E0FE900026E0FD62
:0B092E00EEB50502D203D2AC8F82228E
:13093900438E805389FC758CA9758A9AD2A9D2AFD28C22C3
:20094C0085823485833585F0367537007B00C00312080EE582D0036040E5376009C0031222
:20096C00090FD0038026BB8003753701EB2429FAE43402FCC004C003C00212090FAF82D033
:20098C0002D003D0048A828C83EFF00B78638682C003120280D00380B58B07E537601678BF
:2009AC00618605088606786174012DF6E43E08F68D828E8322EB24F94003020CFA900229CA
:2009CC00E0FE785D7600EE7004785D7601785EE6B506028008785DE67003020D0AEF24FEDB
:2009EC00FE2429F582E43402F583E0FC7D00EF142429F582E43402F583E0FAC0077F00EADB
:200A0C004205EF42048E82C005C004120D82AE82AF83D004D005EEB50506EFB5040280052C
:200A2C00D007020CF0D00790022AE0FE785FA60690022BE0FD7C008D478C4690022CE0FA8D
:200A4C008A448C45E5444546F538E5454547F53990022DE0FC7D008C4B8D4A90022EE0FAC6
:200A6C008A488D49E548454AF53AE549454BF53BE53A2538F53CE53B3539F53D785DE66061
:200A8C0003020B77BE03028003020B77785BC3E53896E53908964003020B6E785BC3E69525
:200AAC003C08E6953D5003020B65E53AFA25E0F5402405F541900229785EE6F090022AEEA6
:200ACC00F090022BE540F0753F0385383E853E4CAA4C7C00C3EA953CEC953D5043E54C75A0
:200AEC00F002A42534FAE53535F0FCAD368A828C838DF01211A6FAA31211A6FCE53F2429AF
:200B0C00F582E43402F5838C05EDF0053FE53F2429F582E43402F583EAF0053F054C80B0F5
:200B2C00E54124FEFDF582C005120D82AA82AC83D005ED2429F582E43402F5838C05EDF0A6
:200B4C00E541142429F582E43402F5838A05EDF0854182120DD5020D0A758203120D12020B
:200B6C000D0A758202120D12020D0ABE06028002807C785BC3E53896E53908965067E544E6
:200B8C004546F538E5454547F539E548454AF542E549454BF543E5382538F54AE53933F5C5
:200BAC004BE54A2534F54DE54B3535F54E85364F854D82854E83854FF0E542120F04A3E5EB
:200BCC0043120F04758206120D82AA82AC838C0590022FEDF08A05900230EDF0758208123A
:200BEC000DD5020D0A758202120D12020D0ABE10028003020CE890022FE0FE7D00EF24F73C
:200C0C00F54DED34FFF54E7F00EEB54D06EFB54E028003020CDE785BC3E53896E539089646
:200C2C004003020CD6785BC3E6953C08E6953D5003020CCE85384D753F07AD4D7E00C3ED58
:200C4C00953CEE953D5058E54D75F002A42534F550E53535F0F551853652E53F2429F582FA
:200C6C00E43402F583E0FF7E008F4B8E4AE53F042429F582E43402F583E0FD7F00E54A427C
:200C8C0005E54B42078550828551838552F0ED120F04A3EF120F04053F053F054D809B7520
:200CAC008206120D82AA82AC838C0790022FEFF0900230EAF0785DE67044758208120DD573
:200CCC00803C758203120D128034758202120D12802C786106B60002080680227582011246
:200CEC000D12801A786106B6000208068010EB600DBB08005008786106B600020806786109
:200D0C00868208868322AF82786106B600020806785DE67031900229785EE6F0785F748028
:200D2C004690022AF090022BEFF0758203120D82AE82AF838F0590022CEDF090022DEEF050
:200D4C00758205020DD522AF82785EA607120818E55324FE5006AF537860A6077863760F08
:200D6C0078647623AE54AF55785BA60608A6077861E4F608F622AF827DFF7EFF7C00C3EC90
:200D8C009F5034EC2429F582E43402F583E07A006205EA62067B0874015DF97A00EEC31343
:200DAC00CD13CDFEE94A60066305016306A0EB14FAFB70E30C80C78E047F008D037A00ECD0
:200DCC004AFDEF4B8D82F58322AF827E00C3EE9F501BEE2429F582E43402F583E0F582C018
:140DEC0007C0061208C3D006D0070E80E078648682020280C6
:200E0000120EA3BC0003021090EF60FA30D502B2D1E583B4FF030210A6E582B4FF030210D6
:200E2000A6258340072482400B02109024831450030210A6F582EA8DF0A4A8F0EA8EF0A49E
:200E400028F8E435F0F9EB8DF0A428E935F0F9E433CA8FF0A429F9EA35F0FAEBF88EF0A401
:200E600029F9EA35F0FAE433FBEC8DF0A429F9EA35F0FAE43BFBE88FF0A42AFAEB35F0FBA9
:200E8000E433CCFD8EF0A42AFAEB35F0FBE43CFCED8FF0A42BFBEC35F0FC20E703120ED1C7
:030EA00002106FCE
:200EA300AA82AB83A2F73392D1F5826002D2F7ACF0E58124F9F8E6FD08E6FE0886F008E6B2
:0E0EC300A2F73392D5F5836002D2F7AFF0228A
:06005800E478FFF6D8FD7C
:200ED1007804EC7011E58224F8500AF582E4C9CACBFCD8EF22EC7820058220E713D5820120
:130EF10022C3E933F9EA33FAEB33FBEC33FCD8EA1582222E
:200036007900E94400601B7A0090162378A975A002E493F2A308B8000205A0D9F4DAF2758D
:02005600A0FF09
:1B0F040020F71130F6138883A88220F509F6A8837583002280FEF280F5F022EC
:200F1F00AC82AD83AEF0FF8515F0E51642F0E51742F0E518547F45F0700990000075F080DF
:200F3F00743F22C007C006C005C004E4C0E0C0E07480C0E0743FC0E08515828516838517C6
:200F5F00F0E51812134FAB82E58124FCF581D004D005D006D007EB60088C828D838EF0EFB4
:200F7F0022C007C006C005C004E4C0E0C0E0C0E0C0E08C828D838EF0EF121364E58124FC1C
:200F9F00F581D004D005D006D007E58224FF92054007900000E4F5F0228C828D838EF0EFF8
:200FBF00121202AC82AD83AEF0FFC015C016C017C0188C828D838EF0EF120E00AC82AD838E
:130FDF00AEF0FFE58124FCF5818C828D838EF0EF02139432
:200FF200120EA37900E583B58202800D50031210BEE583C3958212130CE5D0C465D020E120
:2010120017EA2DFAEB3EFBEC3FFC5009740112130CEC4480FC02106FC3EA9DFAEB9EFBEC6B
:191032009FFC500FC3E499F9E49AFAE49BFBE49CFCB2D1120ED102106F0F
:20005E007800E84400600A790175A000E4F309D8FC78A8E84402600C7903900001E4F0A3F3
:04007E00D8FCD9FAD7
:0D104B00AC83AB827A007900748E0211CB69
:0C105800E4AC83AB82FAF9748E0211F84C
:0B1064007F8E121535F58385F0822287
:20106F00B98003EA13B34010EA2401FAE43BFBE43CFC50047C800582BC000EBB000BBA00C5
:20108F0008E4F5F0F583F58222A2D1E582138CF092F78B838A8222E4F583F58275F080F485
:0F10AF00A2D11322E4F583F58275F0C0747F227D
:1A10BE00E582C583F582A2D133A2D592D11392D5ECCFFCEBCEFBEACDFA22BA
:2010D800120EA330D502B2D1BF0009BC00030210B30210A6BC0003021090E583B4FF0BE53B
:2010F80082B4FF030210B3021090E582B4FF030210A6C395835007247F400B0210902480FE
:201118001450030210A6F582C3ED9AEE9BEF9C40111582C3EA33F9EB33FAEC33FBE433FCBD
:201138008005E4CCCBCAF9C08275F019C3E99DEA9EEB9FEC9400D5F002802D400EE99DF9F8
:20115800EA9EFAEB9FFBEC9400FCC3B3E833F8E58233F582E58333F583C3E933F9EA33FA58
:20117800EB33FBEC33FC80C4B3E4F938FAE43582FBE43583FCD082500405827C80120ED1D5
:03119800021087BB
:0D002900758164121360E5826003020026F9
:0B119B00E4AC82FBFAF974860211F844
:1C11A60020F71430F6148883A88220F507E6A88375830022E280F7E49322E02258
:2011C200FCABF0AA83A982749EF582C2D1EC30E716D2D1E9F42401F9EAF43400FAEBF4342C
:0D11E20000FBECF43400FC120ED102106F83
:1311EF00FCABF0AA83A982749EC2D1F582120ED102106F70
:2012020012152130D1061210B30212CABC0008D2D11210A60212CAC0827403790012130C5A
:20122200E4F519F51AF51BF51C9015ABF88C078B068A0589F0E81212CBE925F0EA3DEB3EF1
:20124200EC3F54E07028E925F0F9EA3DFAEB3EFBEC3FFCE4932519F519740193351AF51A09
:20126200740293351BF51B740393351CF51CA3A3A3A308B81EB7AC1CAB1BAA1AA91975826B
:2012820081D2D1120ED1D0E0B47E05121087803840062482C2D58005F4247FD2D5F812108F
:2012A200BE741888F0A4F9AAF074B188F0A4FBACF0747288F0A42AFAE5F03BFBE43CFC7599
:0912C2008286120ED1120FF522F2
:2012CB0024F850228DF0AD06AE077F0024F850168DF0AD067E0024F8500C8DF07D0024F853
:2012EB00500475F0002224086016C000F8C3EF13FFEE13FEED13FDE5F013F5F0D8EFD0008A
:01130B0022BF
:2015AB00FF422E16F691F90CF2FD2307EEE0C4030CA3F001D814FC00A3027F0055C03F0061
:2015CB000BF01F0001FC0F0000FF0700C0FF0300F0FF0100FCFF0000FF7F00000040000069
:2015EB000020000000100000000800000004000000020000000100008000000040000000E1
:18160B0020000000100000000800000004000000020000000100000088
:20130C006040F82582500274FFF582E824F8501ECCCBCAF9E4CC24F85014CBCAF9E4CB24E9
:20132C00F8500BCAF9E4CA24F8500379002224086010F8C3EC13FCEB13FBEA13FAE913F99C
:03134C00D8F122B3
:11134F00FFA881181812157812155AE96401F582222E
:041360007582002270
:20136400FFA8811818121578D2D133E6400730E70B7582012220E70675820022C2D1121553
:101384005AE97003F5822230D101B3E433F58222A5
:20139400A2E79206C2E7F8A2F7332499400B90000075F080743F0214D1755A00E58224E852
:2013B400E583348DE5F034CEE834C0E8505885825685835785F058F559783BC00078AAC081
:2013D4000078B8C000783FC000120E0015811581158115811215A3E582F55A24805006128E
:2013F40010A60214D1780079807A317BBF1214D285825685835785F058F559788379807AA9
:201414005E7B391214D2A2F733D2F7A982AA83ABF07C00B47902800F4007248712150A8049
:2014340006F4247A12130CE4F556F557F5587559209015ABF8E493F5F0A3E493FDA3E49344
:20145400FEA3E493FFA3C3E995F0EA9DEB9EEC9F4030C3E995F0F9EA9DFAEB9EFBEC9FFCCC
:201474008556F0AD57AE58AF59E81212CBE55625F0F556E5573DF557E5583EF558E5593FFF
:20149400F55908B81BAFAC59AB58AA57A956758279120ED1747F255AF58212106F30061B2C
:2014B400C082C083C0F0C0E090000075F080743F1210D81581158115811581C2E722C0003E
:2014D400C001C002C003855A8212119B120E001581158115811581C082C083C0F0C0E085C1
:2014F40056828557838558F0E559120FF21581158115811581226014C000F8C3E933F9EA1B
:0D15140033FAEB33FBEC33FCD8F1D00022AE
:12152100AA82AB83A2F73392D1F5826002D2F7ACF022CF
:201533007F9E12152130D103021090C3EF9582500974FFF5F0F583F58222790012130C89CF
:07155300828A838BF0EC2279
:20155A007901AA82E68F82B5821318E6B5F00E18E6B5830918E68A82B58202790022B48088
:20157A000FE5F0700AE5837006E58270027F00EFB6801518B6001018B6000B18B6000608F0
:09159A0008087600220808082266
:0815A3007F86121535F5822246
:00000001FF
